{
  "contractName": "PawnBank",
  "abi": [
    {
      "anonymous": false,
      "inputs": [
        {
          "indexed": false,
          "internalType": "uint256",
          "name": "id",
          "type": "uint256"
        }
      ],
      "name": "LoanCancelled",
      "type": "event"
    },
    {
      "anonymous": false,
      "inputs": [
        {
          "indexed": false,
          "internalType": "uint256",
          "name": "id",
          "type": "uint256"
        },
        {
          "indexed": true,
          "internalType": "address",
          "name": "owner",
          "type": "address"
        },
        {
          "indexed": false,
          "internalType": "address",
          "name": "tokenAddress",
          "type": "address"
        },
        {
          "indexed": false,
          "internalType": "uint256",
          "name": "tokenId",
          "type": "uint256"
        },
        {
          "indexed": false,
          "internalType": "uint256",
          "name": "maxLoanAmount",
          "type": "uint256"
        },
        {
          "indexed": false,
          "internalType": "uint256",
          "name": "loanCompleteTime",
          "type": "uint256"
        }
      ],
      "name": "LoanCreated",
      "type": "event"
    },
    {
      "anonymous": false,
      "inputs": [
        {
          "indexed": false,
          "internalType": "uint256",
          "name": "id",
          "type": "uint256"
        }
      ],
      "name": "LoanDrawn",
      "type": "event"
    },
    {
      "anonymous": false,
      "inputs": [
        {
          "indexed": false,
          "internalType": "uint256",
          "name": "id",
          "type": "uint256"
        },
        {
          "indexed": false,
          "internalType": "address",
          "name": "lender",
          "type": "address"
        },
        {
          "indexed": false,
          "internalType": "address",
          "name": "repayer",
          "type": "address"
        }
      ],
      "name": "LoanRepayed",
      "type": "event"
    },
    {
      "anonymous": false,
      "inputs": [
        {
          "indexed": false,
          "internalType": "uint256",
          "name": "id",
          "type": "uint256"
        },
        {
          "indexed": false,
          "internalType": "address",
          "name": "lender",
          "type": "address"
        },
        {
          "indexed": false,
          "internalType": "address",
          "name": "caller",
          "type": "address"
        }
      ],
      "name": "LoanSeized",
      "type": "event"
    },
    {
      "anonymous": false,
      "inputs": [
        {
          "indexed": false,
          "internalType": "uint256",
          "name": "id",
          "type": "uint256"
        },
        {
          "indexed": false,
          "internalType": "address",
          "name": "lender",
          "type": "address"
        }
      ],
      "name": "LoanUnderwritten",
      "type": "event"
    },
    {
      "inputs": [],
      "name": "numLoans",
      "outputs": [
        {
          "internalType": "uint256",
          "name": "",
          "type": "uint256"
        }
      ],
      "stateMutability": "view",
      "type": "function"
    },
    {
      "inputs": [
        {
          "internalType": "uint256",
          "name": "",
          "type": "uint256"
        }
      ],
      "name": "pawnLoans",
      "outputs": [
        {
          "internalType": "address",
          "name": "tokenAddress",
          "type": "address"
        },
        {
          "internalType": "address",
          "name": "tokenOwner",
          "type": "address"
        },
        {
          "internalType": "address",
          "name": "lender",
          "type": "address"
        },
        {
          "internalType": "uint256",
          "name": "tokenId",
          "type": "uint256"
        },
        {
          "internalType": "uint256",
          "name": "interestRate",
          "type": "uint256"
        },
        {
          "internalType": "uint256",
          "name": "loanAmount",
          "type": "uint256"
        },
        {
          "internalType": "uint256",
          "name": "maxLoanAmount",
          "type": "uint256"
        },
        {
          "internalType": "uint256",
          "name": "loanAmountDrawn",
          "type": "uint256"
        },
        {
          "internalType": "uint256",
          "name": "firstBidTime",
          "type": "uint256"
        },
        {
          "internalType": "uint256",
          "name": "lastBidTime",
          "type": "uint256"
        },
        {
          "internalType": "uint256",
          "name": "historicInterest",
          "type": "uint256"
        },
        {
          "internalType": "uint256",
          "name": "loanCompleteTime",
          "type": "uint256"
        }
      ],
      "stateMutability": "view",
      "type": "function"
    },
    {
      "inputs": [
        {
          "internalType": "address",
          "name": "_tokenAddress",
          "type": "address"
        },
        {
          "internalType": "uint256",
          "name": "_tokenId",
          "type": "uint256"
        },
        {
          "internalType": "uint256",
          "name": "_interestRate",
          "type": "uint256"
        },
        {
          "internalType": "uint256",
          "name": "_maxLoanAmount",
          "type": "uint256"
        },
        {
          "internalType": "uint256",
          "name": "_loanCompleteTime",
          "type": "uint256"
        }
      ],
      "name": "createLoan",
      "outputs": [
        {
          "internalType": "uint256",
          "name": "",
          "type": "uint256"
        }
      ],
      "stateMutability": "nonpayable",
      "type": "function"
    },
    {
      "inputs": [
        {
          "internalType": "uint256",
          "name": "_loanId",
          "type": "uint256"
        },
        {
          "internalType": "uint256",
          "name": "_future",
          "type": "uint256"
        }
      ],
      "name": "calculateInterestAccrued",
      "outputs": [
        {
          "internalType": "uint256",
          "name": "",
          "type": "uint256"
        }
      ],
      "stateMutability": "view",
      "type": "function"
    },
    {
      "inputs": [
        {
          "internalType": "uint256",
          "name": "_loanId",
          "type": "uint256"
        },
        {
          "internalType": "uint256",
          "name": "_future",
          "type": "uint256"
        }
      ],
      "name": "calculateTotalInterest",
      "outputs": [
        {
          "internalType": "uint256",
          "name": "",
          "type": "uint256"
        }
      ],
      "stateMutability": "view",
      "type": "function"
    },
    {
      "inputs": [
        {
          "internalType": "uint256",
          "name": "_loanId",
          "type": "uint256"
        },
        {
          "internalType": "uint256",
          "name": "_future",
          "type": "uint256"
        }
      ],
      "name": "calculateRequiredRepayment",
      "outputs": [
        {
          "internalType": "uint256",
          "name": "",
          "type": "uint256"
        }
      ],
      "stateMutability": "view",
      "type": "function"
    },
    {
      "inputs": [
        {
          "internalType": "uint256",
          "name": "_loanId",
          "type": "uint256"
        }
      ],
      "name": "underwriteLoan",
      "outputs": [],
      "stateMutability": "payable",
      "type": "function"
    },
    {
      "inputs": [
        {
          "internalType": "uint256",
          "name": "_loanId",
          "type": "uint256"
        }
      ],
      "name": "drawLoan",
      "outputs": [],
      "stateMutability": "nonpayable",
      "type": "function"
    },
    {
      "inputs": [
        {
          "internalType": "uint256",
          "name": "_loanId",
          "type": "uint256"
        }
      ],
      "name": "repayLoan",
      "outputs": [],
      "stateMutability": "payable",
      "type": "function"
    },
    {
      "inputs": [
        {
          "internalType": "uint256",
          "name": "_loanId",
          "type": "uint256"
        }
      ],
      "name": "cancelLoan",
      "outputs": [],
      "stateMutability": "nonpayable",
      "type": "function"
    },
    {
      "inputs": [
        {
          "internalType": "uint256",
          "name": "_loanId",
          "type": "uint256"
        }
      ],
      "name": "seizeNFT",
      "outputs": [],
      "stateMutability": "nonpayable",
      "type": "function"
    }
  ],
  "bytecode": "0x608060405234801561001057600080fd5b50612a53806100206000396000f3fe60806040526004361061009c5760003560e01c80637593ed5f116100645780637593ed5f1461019d578063ab7b1c89146101e5578063afd765ba14610201578063bb2e36d71461023e578063bdbfa3de14610267578063d463eeb3146102905761009c565b80630a7a235a146100a15780630c01436b146100de57806341c379c91461011b57806357793798146101445780636adf20db14610160575b600080fd5b3480156100ad57600080fd5b506100c860048036038101906100c39190611e3d565b6102bb565b6040516100d591906124b9565b60405180910390f35b3480156100ea57600080fd5b5061010560048036038101906101009190611e3d565b61045e565b60405161011291906124b9565b60405180910390f35b34801561012757600080fd5b50610142600480360381019061013d9190611e14565b610663565b005b61015e60048036038101906101599190611e14565b610864565b005b34801561016c57600080fd5b5061018760048036038101906101829190611e3d565b610c4d565b60405161019491906124b9565b60405180910390f35b3480156101a957600080fd5b506101c460048036038101906101bf9190611e14565b610def565b6040516101dc9c9b9a99989796959493929190612168565b60405180910390f35b6101ff60048036038101906101fa9190611e14565b610eaf565b005b34801561020d57600080fd5b5061022860048036038101906102239190611d9d565b611293565b60405161023591906124b9565b60405180910390f35b34801561024a57600080fd5b5061026560048036038101906102609190611e14565b6114d7565b005b34801561027357600080fd5b5061028e60048036038101906102899190611e14565b6117cf565b005b34801561029c57600080fd5b506102a56119d5565b6040516102b291906124b9565b60405180910390f35b60008060016000858152602001908152602001600020604051806101800160405290816000820160009054906101000a900473ffffffffffffffffffffffffffffffffffffffff1673ffffffffffffffffffffffffffffffffffffffff1673ffffffffffffffffffffffffffffffffffffffff1681526020016001820160009054906101000a900473ffffffffffffffffffffffffffffffffffffffff1673ffffffffffffffffffffffffffffffffffffffff1673ffffffffffffffffffffffffffffffffffffffff1681526020016002820160009054906101000a900473ffffffffffffffffffffffffffffffffffffffff1673ffffffffffffffffffffffffffffffffffffffff1673ffffffffffffffffffffffffffffffffffffffff16815260200160038201548152602001600482015481526020016005820154815260200160068201548152602001600782015481526020016008820154815260200160098201548152602001600a8201548152602001600b820154815250509050610445848461045e565b81610140015161045591906125a3565b91505092915050565b60008060016000858152602001908152602001600020604051806101800160405290816000820160009054906101000a900473ffffffffffffffffffffffffffffffffffffffff1673ffffffffffffffffffffffffffffffffffffffff1673ffffffffffffffffffffffffffffffffffffffff1681526020016001820160009054906101000a900473ffffffffffffffffffffffffffffffffffffffff1673ffffffffffffffffffffffffffffffffffffffff1673ffffffffffffffffffffffffffffffffffffffff1681526020016002820160009054906101000a900473ffffffffffffffffffffffffffffffffffffffff1673ffffffffffffffffffffffffffffffffffffffff1673ffffffffffffffffffffffffffffffffffffffff16815260200160038201548152602001600482015481526020016005820154815260200160068201548152602001600782015481526020016008820154815260200160098201548152602001600a8201548152602001600b820154815250509050600081610120015184426105f291906125a3565b6105fc91906125f9565b9050600082610100015183610160015161061691906125f9565b9050600061062483836119db565b90506000610637856080015160646119db565b90506000610649828760a00151611a43565b90506106558382611a43565b965050505050505092915050565b60006001600083815260200190815260200160002090503373ffffffffffffffffffffffffffffffffffffffff168160010160009054906101000a900473ffffffffffffffffffffffffffffffffffffffff1673ffffffffffffffffffffffffffffffffffffffff161461070c576040517f08c379a0000000000000000000000000000000000000000000000000000000008152600401610703906123d9565b60405180910390fd5b8060050154816007015410610756576040517f08c379a000000000000000000000000000000000000000000000000000000000815260040161074d90612459565b60405180910390fd5b60008160070154826005015461076c91906125f9565b90508160050154826007018190555060003373ffffffffffffffffffffffffffffffffffffffff16826040516107a190612153565b60006040518083038185875af1925050503d80600081146107de576040519150601f19603f3d011682016040523d82523d6000602084013e6107e3565b606091505b5050905080610827576040517f08c379a000000000000000000000000000000000000000000000000000000000815260040161081e90612339565b60405180910390fd5b7fdce1acc53aee17f988d1af22ed2377d517ae539ff4d1cac9c296e7a1ebe49acf8460405161085691906124b9565b60405180910390a150505050565b6000600160008381526020019081526020016000209050600034116108be576040517f08c379a00000000000000000000000000000000000000000000000000000000081526004016108b590612279565b60405180910390fd5b600073ffffffffffffffffffffffffffffffffffffffff168160010160009054906101000a900473ffffffffffffffffffffffffffffffffffffffff1673ffffffffffffffffffffffffffffffffffffffff161415610952576040517f08c379a0000000000000000000000000000000000000000000000000000000008152600401610949906123b9565b60405180910390fd5b4281600b01541015610999576040517f08c379a0000000000000000000000000000000000000000000000000000000008152600401610990906122f9565b60405180910390fd5b6000816008015414610b6a5760006109b28360006102bb565b905060008183600501546109c691906125a3565b9050348110610a0a576040517f08c379a0000000000000000000000000000000000000000000000000000000008152600401610a0190612259565b60405180910390fd5b34828460060154610a1b91906125a3565b1015610a5c576040517f08c379a0000000000000000000000000000000000000000000000000000000008152600401610a53906122d9565b60405180910390fd5b60008360020160009054906101000a900473ffffffffffffffffffffffffffffffffffffffff1673ffffffffffffffffffffffffffffffffffffffff1682604051610aa690612153565b60006040518083038185875af1925050503d8060008114610ae3576040519150601f19603f3d011682016040523d82523d6000602084013e610ae8565b606091505b505090506001151581151514610b33576040517f08c379a0000000000000000000000000000000000000000000000000000000008152600401610b2a90612499565b60405180910390fd5b8284600a016000828254610b4791906125a3565b925050819055508234610b5a91906125f9565b8460050181905550505050610bc4565b3481600601541015610bb1576040517f08c379a0000000000000000000000000000000000000000000000000000000008152600401610ba8906122d9565b60405180910390fd5b4281600801819055503481600501819055505b338160020160006101000a81548173ffffffffffffffffffffffffffffffffffffffff021916908373ffffffffffffffffffffffffffffffffffffffff1602179055504281600901819055507fb5b4bf8710421e71bce1b068b3ac76c7e94c25f1ce0892ab2a38adae504ece858233604051610c419291906124d4565b60405180910390a15050565b60008060016000858152602001908152602001600020604051806101800160405290816000820160009054906101000a900473ffffffffffffffffffffffffffffffffffffffff1673ffffffffffffffffffffffffffffffffffffffff1673ffffffffffffffffffffffffffffffffffffffff1681526020016001820160009054906101000a900473ffffffffffffffffffffffffffffffffffffffff1673ffffffffffffffffffffffffffffffffffffffff1673ffffffffffffffffffffffffffffffffffffffff1681526020016002820160009054906101000a900473ffffffffffffffffffffffffffffffffffffffff1673ffffffffffffffffffffffffffffffffffffffff1673ffffffffffffffffffffffffffffffffffffffff16815260200160038201548152602001600482015481526020016005820154815260200160068201548152602001600782015481526020016008820154815260200160098201548152602001600a8201548152602001600b820154815250509050610dd784846102bb565b8160e00151610de691906125a3565b91505092915050565b60016020528060005260406000206000915090508060000160009054906101000a900473ffffffffffffffffffffffffffffffffffffffff16908060010160009054906101000a900473ffffffffffffffffffffffffffffffffffffffff16908060020160009054906101000a900473ffffffffffffffffffffffffffffffffffffffff169080600301549080600401549080600501549080600601549080600701549080600801549080600901549080600a01549080600b015490508c565b6000600160008381526020019081526020016000209050600073ffffffffffffffffffffffffffffffffffffffff168160010160009054906101000a900473ffffffffffffffffffffffffffffffffffffffff1673ffffffffffffffffffffffffffffffffffffffff161415610f5a576040517f08c379a0000000000000000000000000000000000000000000000000000000008152600401610f5190612379565b60405180910390fd5b600081600801541415610fa2576040517f08c379a0000000000000000000000000000000000000000000000000000000008152600401610f9990612439565b60405180910390fd5b4281600b01541015610fe9576040517f08c379a0000000000000000000000000000000000000000000000000000000008152600401610fe090612399565b60405180910390fd5b6000610ff68360006102bb565b9050600081836007015461100a91906125a3565b90508034101561104f576040517f08c379a000000000000000000000000000000000000000000000000000000000815260040161104690612419565b60405180910390fd5b60008360020160009054906101000a900473ffffffffffffffffffffffffffffffffffffffff1673ffffffffffffffffffffffffffffffffffffffff1683856005015461109c91906125a3565b6040516110a890612153565b60006040518083038185875af1925050503d80600081146110e5576040519150601f19603f3d011682016040523d82523d6000602084013e6110ea565b606091505b505090508061112e576040517f08c379a000000000000000000000000000000000000000000000000000000000815260040161112590612479565b60405180910390fd5b8360000160009054906101000a900473ffffffffffffffffffffffffffffffffffffffff1673ffffffffffffffffffffffffffffffffffffffff166323b872dd308660010160009054906101000a900473ffffffffffffffffffffffffffffffffffffffff1687600301546040518463ffffffff1660e01b81526004016111b793929190612222565b600060405180830381600087803b1580156111d157600080fd5b505af11580156111e5573d6000803e3d6000fd5b5050505060008460010160006101000a81548173ffffffffffffffffffffffffffffffffffffffff021916908373ffffffffffffffffffffffffffffffffffffffff1602179055507ffd8e665226dacaeac476c376cb02c3876128f8641a27db7ef31e6f595bee9249858560020160009054906101000a900473ffffffffffffffffffffffffffffffffffffffff1633604051611284939291906124fd565b60405180910390a15050505050565b60004282116112d7576040517f08c379a00000000000000000000000000000000000000000000000000000000081526004016112ce906123f9565b60405180910390fd5b600080600081546112e790612669565b91905081905590508673ffffffffffffffffffffffffffffffffffffffff166323b872dd3330896040518463ffffffff1660e01b815260040161132c93929190612222565b600060405180830381600087803b15801561134657600080fd5b505af115801561135a573d6000803e3d6000fd5b50505050866001600083815260200190815260200160002060000160006101000a81548173ffffffffffffffffffffffffffffffffffffffff021916908373ffffffffffffffffffffffffffffffffffffffff160217905550336001600083815260200190815260200160002060010160006101000a81548173ffffffffffffffffffffffffffffffffffffffff021916908373ffffffffffffffffffffffffffffffffffffffff1602179055508560016000838152602001908152602001600020600301819055508460016000838152602001908152602001600020600401819055508360016000838152602001908152602001600020600601819055508260016000838152602001908152602001600020600b01819055503373ffffffffffffffffffffffffffffffffffffffff167f6850239cc8fa897edd78465a234c3240b84bbfb1c55cac4b85364de88ce7109582898988886040516114c2959493929190612534565b60405180910390a28091505095945050505050565b600060016000838152602001908152602001600020604051806101800160405290816000820160009054906101000a900473ffffffffffffffffffffffffffffffffffffffff1673ffffffffffffffffffffffffffffffffffffffff1673ffffffffffffffffffffffffffffffffffffffff1681526020016001820160009054906101000a900473ffffffffffffffffffffffffffffffffffffffff1673ffffffffffffffffffffffffffffffffffffffff1673ffffffffffffffffffffffffffffffffffffffff1681526020016002820160009054906101000a900473ffffffffffffffffffffffffffffffffffffffff1673ffffffffffffffffffffffffffffffffffffffff1673ffffffffffffffffffffffffffffffffffffffff16815260200160038201548152602001600482015481526020016005820154815260200160068201548152602001600782015481526020016008820154815260200160098201548152602001600a8201548152602001600b820154815250509050600073ffffffffffffffffffffffffffffffffffffffff16816020015173ffffffffffffffffffffffffffffffffffffffff1614156116ca576040517f08c379a00000000000000000000000000000000000000000000000000000000081526004016116c190612359565b60405180910390fd5b4281610160015110611711576040517f08c379a000000000000000000000000000000000000000000000000000000000815260040161170890612319565b60405180910390fd5b806000015173ffffffffffffffffffffffffffffffffffffffff166323b872dd30836040015184606001516040518463ffffffff1660e01b815260040161175a93929190612222565b600060405180830381600087803b15801561177457600080fd5b505af1158015611788573d6000803e3d6000fd5b505050507f274e238aeec3342c0839241d736ba7033c0aac78a6a597d6fce5a2bdd744be7f828260400151336040516117c3939291906124fd565b60405180910390a15050565b60006001600083815260200190815260200160002090503373ffffffffffffffffffffffffffffffffffffffff168160010160009054906101000a900473ffffffffffffffffffffffffffffffffffffffff1673ffffffffffffffffffffffffffffffffffffffff1614611878576040517f08c379a000000000000000000000000000000000000000000000000000000000815260040161186f90612299565b60405180910390fd5b60008160080154146118bf576040517f08c379a00000000000000000000000000000000000000000000000000000000081526004016118b6906122b9565b60405180910390fd5b8060000160009054906101000a900473ffffffffffffffffffffffffffffffffffffffff1673ffffffffffffffffffffffffffffffffffffffff166323b872dd303384600301546040518463ffffffff1660e01b815260040161192493929190612222565b600060405180830381600087803b15801561193e57600080fd5b505af1158015611952573d6000803e3d6000fd5b5050505060008160010160006101000a81548173ffffffffffffffffffffffffffffffffffffffff021916908373ffffffffffffffffffffffffffffffffffffffff1602179055507fb71becc91961a6b43bcc5b3b630f3dce02c7fd444cf3738c4f188062b1caf5bc826040516119c991906124b9565b60405180910390a15050565b60005481565b6000808214156119ea57600080fd5b60006119f68484611afe565b90506f7fffffffffffffffffffffffffffffff6fffffffffffffffffffffffffffffffff16816fffffffffffffffffffffffffffffffff161115611a3957600080fd5b8091505092915050565b600080821415611a565760009050611af8565b600083600f0b1215611a6757600080fd5b600060406fffffffffffffffffffffffffffffffff841685600f0b02901c90506000608084901c85600f0b02905077ffffffffffffffffffffffffffffffffffffffffffffffff811115611aba57600080fd5b604081901b9050817fffffffffffffffffffffffffffffffffffffffffffffffffffffffffffffffff03811115611af057600080fd5b818101925050505b92915050565b600080821415611b0d57600080fd5b600077ffffffffffffffffffffffffffffffffffffffffffffffff8411611b705782604085901b81611b68577f4e487b7100000000000000000000000000000000000000000000000000000000600052601260045260246000fd5b049050611d4c565b600060c09050600060c086901c90506401000000008110611b9957602081901c90506020820191505b620100008110611bb157601081901c90506010820191505b6101008110611bc857600881901c90506008820191505b60108110611bde57600481901c90506004820191505b60048110611bf457600281901c90506002820191505b60028110611c03576001820191505b600160bf830360018703901c018260ff0387901b81611c4b577f4e487b7100000000000000000000000000000000000000000000000000000000600052601260045260246000fd5b0492506fffffffffffffffffffffffffffffffff831115611c6b57600080fd5b6000608086901c8402905060006fffffffffffffffffffffffffffffffff871685029050600060c089901c9050600060408a901b905082811015611cb0576001820391505b8281039050608084901b925082811015611ccb576001820391505b8281039050608084901c8214611d0a577f4e487b7100000000000000000000000000000000000000000000000000000000600052600160045260246000fd5b888181611d40577f4e487b7100000000000000000000000000000000000000000000000000000000600052601260045260246000fd5b04870196505050505050505b6fffffffffffffffffffffffffffffffff811115611d6957600080fd5b8091505092915050565b600081359050611d82816129ef565b92915050565b600081359050611d9781612a06565b92915050565b600080600080600060a08688031215611db557600080fd5b6000611dc388828901611d73565b9550506020611dd488828901611d88565b9450506040611de588828901611d88565b9350506060611df688828901611d88565b9250506080611e0788828901611d88565b9150509295509295909350565b600060208284031215611e2657600080fd5b6000611e3484828501611d88565b91505092915050565b60008060408385031215611e5057600080fd5b6000611e5e85828601611d88565b9250506020611e6f85828601611d88565b9150509250929050565b611e828161262d565b82525050565b6000611e95601e83612592565b9150611ea0826126e1565b602082019050919050565b6000611eb8601e83612592565b9150611ec38261270a565b602082019050919050565b6000611edb601c83612592565b9150611ee682612733565b602082019050919050565b6000611efe601f83612592565b9150611f098261275c565b602082019050919050565b6000611f21601c83612592565b9150611f2c82612785565b602082019050919050565b6000611f44601e83612592565b9150611f4f826127ae565b602082019050919050565b6000611f67601a83612592565b9150611f72826127d7565b602082019050919050565b6000611f8a601783612592565b9150611f9582612800565b602082019050919050565b6000611fad601d83612592565b9150611fb882612829565b602082019050919050565b6000611fd0601683612592565b9150611fdb82612852565b602082019050919050565b6000611ff3601983612592565b9150611ffe8261287b565b602082019050919050565b6000612016601f83612592565b9150612021826128a4565b602082019050919050565b6000612039601a83612592565b9150612044826128cd565b602082019050919050565b600061205c601983612592565b9150612067826128f6565b602082019050919050565b600061207f601783612592565b915061208a8261291f565b602082019050919050565b60006120a2601d83612592565b91506120ad82612948565b602082019050919050565b60006120c5600083612587565b91506120d082612971565b600082019050919050565b60006120e8601a83612592565b91506120f382612974565b602082019050919050565b600061210b601583612592565b91506121168261299d565b602082019050919050565b600061212e601c83612592565b9150612139826129c6565b602082019050919050565b61214d8161265f565b82525050565b600061215e826120b8565b9150819050919050565b60006101808201905061217e600083018f611e79565b61218b602083018e611e79565b612198604083018d611e79565b6121a5606083018c612144565b6121b2608083018b612144565b6121bf60a083018a612144565b6121cc60c0830189612144565b6121d960e0830188612144565b6121e7610100830187612144565b6121f5610120830186612144565b612203610140830185612144565b612211610160830184612144565b9d9c50505050505050505050505050565b60006060820190506122376000830186611e79565b6122446020830185611e79565b6122516040830184612144565b949350505050565b6000602082019050818103600083015261227281611e88565b9050919050565b6000602082019050818103600083015261229281611eab565b9050919050565b600060208201905081810360008301526122b281611ece565b9050919050565b600060208201905081810360008301526122d281611ef1565b9050919050565b600060208201905081810360008301526122f281611f14565b9050919050565b6000602082019050818103600083015261231281611f37565b9050919050565b6000602082019050818103600083015261233281611f5a565b9050919050565b6000602082019050818103600083015261235281611f7d565b9050919050565b6000602082019050818103600083015261237281611fa0565b9050919050565b6000602082019050818103600083015261239281611fc3565b9050919050565b600060208201905081810360008301526123b281611fe6565b9050919050565b600060208201905081810360008301526123d281612009565b9050919050565b600060208201905081810360008301526123f28161202c565b9050919050565b600060208201905081810360008301526124128161204f565b9050919050565b6000602082019050818103600083015261243281612072565b9050919050565b6000602082019050818103600083015261245281612095565b9050919050565b60006020820190508181036000830152612472816120db565b9050919050565b60006020820190508181036000830152612492816120fe565b9050919050565b600060208201905081810360008301526124b281612121565b9050919050565b60006020820190506124ce6000830184612144565b92915050565b60006040820190506124e96000830185612144565b6124f66020830184611e79565b9392505050565b60006060820190506125126000830186612144565b61251f6020830185611e79565b61252c6040830184611e79565b949350505050565b600060a0820190506125496000830188612144565b6125566020830187611e79565b6125636040830186612144565b6125706060830185612144565b61257d6080830184612144565b9695505050505050565b600081905092915050565b600082825260208201905092915050565b60006125ae8261265f565b91506125b98361265f565b9250827fffffffffffffffffffffffffffffffffffffffffffffffffffffffffffffffff038211156125ee576125ed6126b2565b5b828201905092915050565b60006126048261265f565b915061260f8361265f565b925082821015612622576126216126b2565b5b828203905092915050565b60006126388261263f565b9050919050565b600073ffffffffffffffffffffffffffffffffffffffff82169050919050565b6000819050919050565b60006126748261265f565b91507fffffffffffffffffffffffffffffffffffffffffffffffffffffffffffffffff8214156126a7576126a66126b2565b5b600182019050919050565b7f4e487b7100000000000000000000000000000000000000000000000000000000600052601160045260246000fd5b7f43616e277420756e6465727772697465203c20746f70206c656e6465722e0000600082015250565b7f43616e277420756e6465727772697465207769746820302045746865722e0000600082015250565b7f4d757374206265204e4654206f776e657220746f2063616e63656c2e00000000600082015250565b7f43616e27742063616e63656c206c6f616e2077697468203e3020626964732e00600082015250565b7f43616e277420756e6465727772697465203e206d6178206c6f616e2e00000000600082015250565b7f43616e277420756e64657277726974652065787069726564206c6f616e2e0000600082015250565b7f43616e2774207365697a65206265666f7265206578706972792e000000000000600082015250565b7f4661696c656420746f2064726177206361706974616c2e000000000000000000600082015250565b7f43616e2774207365697a652066726f6d20726570616964206c6f616e2e000000600082015250565b7f43616e27742072657061792070616964206c6f616e2e00000000000000000000600082015250565b7f43616e27742072657061792065787069726564206c6f616e2e00000000000000600082015250565b7f43616e277420756e6465727772697465206120726570616964206c6f616e2e00600082015250565b7f4d757374206265204e4654206f776e657220746f20647261772e000000000000600082015250565b7f43616e277420637265617465206c6f616e20696e207061737400000000000000600082015250565b7f496e73756666696369656e742072657061796d656e742e000000000000000000600082015250565b7f43616e2774207265706179206c6f616e2077697468203020626964732e000000600082015250565b50565b7f4d6178206472617720636170616369747920726561636865642e000000000000600082015250565b7f4661696c656420746f207265706179206c6f616e2e0000000000000000000000600082015250565b7f4661696c656420746f206275796f757420746f70206269646465722e00000000600082015250565b6129f88161262d565b8114612a0357600080fd5b50565b612a0f8161265f565b8114612a1a57600080fd5b5056fea264697066735822122054ccc1062a40a535c2667c2d52166cde9f3fe6781296c1fb785eea896473078d64736f6c63430008040033",
  "immutableReferences": {},
  "source": "//SPDX-License-Identifier: GPL-3.0-or-later\npragma solidity ^0.8.0;\n\n// ============ Imports ============\n\nimport \"abdk-libraries-solidity/ABDKMath64x64.sol\";\nimport \"@openzeppelin/contracts/token/ERC721/IERC721.sol\";\n\n/**\n * @title PawnBank: NFT-collateralized lending\n * @author Anish Agnihotri\n * @dev Completed loans are represented as tokenOwner = 0x0 to prevent\n *      errors w.r.t stack too deep (too large of a struct to include a bool)\n * @dev Unlike original spec., lenders are paid for only active duration (D')\n */\ncontract PawnBank {\n  // ============ Structs ============\n\n  // Individual loan\n  struct PawnLoan {\n    // NFT token address\n    address tokenAddress;\n    // NFT token owner (loan initiator or 0x0 for repaid)\n    address tokenOwner;\n    // Current top lender/bidder\n    address lender;\n    // NFT token id\n    uint256 tokenId;\n    // Fixed interest rate\n    uint256 interestRate;\n    // Current max bid\n    uint256 loanAmount;\n    // Maximum bid\n    uint256 maxLoanAmount;\n    // Current loan utilization\n    uint256 loanAmountDrawn;\n    // Timestamp of first bid\n    uint256 firstBidTime;\n    // Timestamp of last bid\n    uint256 lastBidTime;\n    // Interest paid by top bidder, thus far\n    uint256 historicInterest;\n    // Timestamp of loan completion\n    uint256 loanCompleteTime;\n  }\n\n  // ============ Mutable storage ============\n\n  // Number of loans issued\n  uint256 public numLoans;\n  // Mapping of loan number to loan struct\n  mapping(uint256 => PawnLoan) public pawnLoans;\n\n  // ============ Events ============\n\n  // Loan creation event with indexed NFT owner\n  event LoanCreated(\n    uint256 id,\n    address indexed owner,\n    address tokenAddress,\n    uint256 tokenId,\n    uint256 maxLoanAmount,\n    uint256 loanCompleteTime\n  );\n  // New loan lender/bidder\n  event LoanUnderwritten(uint256 id, address lender);\n  // Loan drawn by NFT owner\n  event LoanDrawn(uint256 id);\n  // Loan repayed by address\n  event LoanRepayed(uint256 id, address lender, address repayer);\n  // Loan cancelled by NFT owner\n  event LoanCancelled(uint256 id);\n  // NFT seized by lender\n  event LoanSeized(uint256 id, address lender, address caller);\n\n  // ============ Functions ============\n\n  /**\n   * Enables an NFT owner to create a loan, specifying parameters\n   * @param _tokenAddress NFT token address\n   * @param _tokenId NFT token id\n   * @param _interestRate percentage fixed interest rate for period\n   * @param _maxLoanAmount maximum allowed Ether bid\n   * @param _loanCompleteTime time of loan completion\n   * @return Loan id\n   */\n  function createLoan(\n    address _tokenAddress,\n    uint256 _tokenId,\n    uint256 _interestRate,\n    uint256 _maxLoanAmount,\n    uint256 _loanCompleteTime\n  ) external returns (uint256) {\n    // Enforce creating future-dated loan\n    require(_loanCompleteTime > block.timestamp, \"Can't create loan in past\");\n\n    // NFT id\n    uint256 loanId = ++numLoans;\n\n    // Transfer NFT from owner to contract\n    IERC721(_tokenAddress).transferFrom(msg.sender, address(this), _tokenId);\n\n    // Create loan\n    pawnLoans[loanId].tokenAddress = _tokenAddress;\n    pawnLoans[loanId].tokenOwner = msg.sender;\n    pawnLoans[loanId].tokenId = _tokenId;\n    pawnLoans[loanId].interestRate = _interestRate;\n    pawnLoans[loanId].maxLoanAmount = _maxLoanAmount;\n    pawnLoans[loanId].loanCompleteTime = _loanCompleteTime;\n\n    // Emit creation event\n    emit LoanCreated(\n      loanId,\n      msg.sender,\n      _tokenAddress,\n      _tokenId,\n      _maxLoanAmount,\n      _loanCompleteTime\n    );\n\n    // Return loan id\n    return loanId;\n  }\n\n  /**\n   * Helper: Calculate accrued interest for a particular lender\n   * @param _loanId PawnLoan id\n   * @param _future allows calculating accrued interest in future\n   * @return Accrued interest on current top bid, in Ether\n   */\n  function calculateInterestAccrued(uint256 _loanId, uint256 _future)\n    public\n    view\n    returns (uint256)\n  {\n    PawnLoan memory loan = pawnLoans[_loanId];\n    // Seconds that current bid has stayed at top\n    uint256 _secondsAsTopBid = block.timestamp + _future - loan.lastBidTime;\n    // Seconds that any loan has been active\n    uint256 _secondsSinceFirstBid = loan.loanCompleteTime - loan.firstBidTime;\n    // Duration of total loan time that current bid has been active\n    int128 _durationAsTopBid = ABDKMath64x64.divu(_secondsAsTopBid, _secondsSinceFirstBid);\n    // Interest rate\n    int128 _interestRate = ABDKMath64x64.divu(loan.interestRate, 100);\n    // Calculating the maximum interest if paying _interestRate for all _secondsSinceFirstBid\n    uint256 _maxInterest = ABDKMath64x64.mulu(_interestRate, loan.loanAmount);\n    // Calculating the share of maximum interest to pay to top bidder\n    return ABDKMath64x64.mulu(_durationAsTopBid, _maxInterest);\n  }\n\n  /**\n   * Helper: Calculates required additional capital (over topbid) to outbid loan\n   * @param _loanId PawnLoan id\n   * @param _future allows calculating required additional capital in future\n   * @return required interest payment to cover current top bidder\n   */\n  function calculateTotalInterest(uint256 _loanId, uint256 _future) public view returns (uint256) {\n    PawnLoan memory loan = pawnLoans[_loanId];\n\n    // past lender interest + current accrued interest\n    return loan.historicInterest + calculateInterestAccrued(_loanId, _future);\n  }\n\n  /**\n   * Helper: Calculate required capital to repay loan\n   * @param _loanId PawnLoan id\n   * @param _future allows calculating require payment in future\n   * @return required loan repayment in Ether\n   */\n  function calculateRequiredRepayment(uint256 _loanId, uint256 _future)\n    public\n    view\n    returns (uint256)\n  {\n    PawnLoan memory loan = pawnLoans[_loanId];\n\n    // amount withdrawn + total interest to be paid\n    return loan.loanAmountDrawn + calculateTotalInterest(_loanId, _future);\n  }\n\n  /**\n   * Enables a lender/bidder to underwrite a loan, given it is the top bid\n   * @param _loanId id of loan to underwrite\n   * @dev Requires an unpaid loan, where currentBid < newBid <= maxBid\n   */\n  function underwriteLoan(uint256 _loanId) external payable {\n    PawnLoan storage loan = pawnLoans[_loanId];\n    // Prevent underwriting with 0 value\n    require(msg.value > 0, \"Can't underwrite with 0 Ether.\");\n    // Prevent underwriting a repaid loan\n    require(loan.tokenOwner != address(0), \"Can't underwrite a repaid loan.\");\n    // Prevent underwriting an expired loan\n    require(loan.loanCompleteTime >= block.timestamp, \"Can't underwrite expired loan.\");\n\n    // If loan has a previous bid:\n    if (loan.firstBidTime != 0) {\n      // Historic interest paid to previous top bidders + accrued interest to current bidder\n      // As of current block (future = 0 seconds)\n      uint256 _totalInterest = calculateTotalInterest(_loanId, 0);\n      // Calculate total payout for previous bidder\n      uint256 _bidPayout = loan.loanAmount + _totalInterest;\n\n      // Prevent underwriting a loan with value < required payout\n      require(_bidPayout < msg.value, \"Can't underwrite < top lender.\");\n      // Prevent underwriting a loan with value greater than max bid + pending interest\n      require(loan.maxLoanAmount + _totalInterest >= msg.value, \"Can't underwrite > max loan.\");\n\n      // Buyout current top bidder\n      (bool sent, ) = payable(loan.lender).call{value: _bidPayout}(\"\");\n      require(sent == true, \"Failed to buyout top bidder.\");\n\n      // Increment historic paid interest\n      loan.historicInterest += _totalInterest;\n      // Update new loan amount\n      loan.loanAmount = msg.value - _totalInterest;\n    } else {\n      // Prevent underwriting a loan with value greater than max bid\n      require(loan.maxLoanAmount >= msg.value, \"Can't underwrite > max loan.\");\n      // If loan doesn't have a previous bid (to buyout), set first bid time\n      loan.firstBidTime = block.timestamp;\n      // Update new loan amount\n      loan.loanAmount = msg.value;\n    }\n\n    // Update new lender address\n    loan.lender = msg.sender;\n    // Update last bid time\n    loan.lastBidTime = block.timestamp;\n\n    // Emit new underwriting event\n    emit LoanUnderwritten(_loanId, msg.sender);\n  }\n\n  /**\n   * Enables NFT owner to draw capital from top bid\n   * @param _loanId id of loan to draw from\n   */\n  function drawLoan(uint256 _loanId) external {\n    PawnLoan storage loan = pawnLoans[_loanId];\n    // Prevent non-loan-owner from drawing\n    require(loan.tokenOwner == msg.sender, \"Must be NFT owner to draw.\");\n    // Prevent drawing from a loan with 0 available capital\n    require(loan.loanAmountDrawn < loan.loanAmount, \"Max draw capacity reached.\");\n\n    // Calculate capital to draw\n    uint256 _availableCapital = loan.loanAmount - loan.loanAmountDrawn;\n    // Update drawn amount to current loan capacity\n    loan.loanAmountDrawn = loan.loanAmount;\n    // Draw the maximum available loan capital\n    (bool sent, ) = payable(msg.sender).call{value: _availableCapital}(\"\");\n    require(sent, \"Failed to draw capital.\");\n\n    // Emit draw event\n    emit LoanDrawn(_loanId);\n  }\n\n  /**\n   * Enables anyone to repay a loan on behalf of owner\n   * @param _loanId id of loan to repay\n   */\n  function repayLoan(uint256 _loanId) external payable {\n    PawnLoan storage loan = pawnLoans[_loanId];\n    // Prevent repaying repaid loan\n    require(loan.tokenOwner != address(0), \"Can't repay paid loan.\");\n    // Prevent repaying loan without bids\n    require(loan.firstBidTime != 0, \"Can't repay loan with 0 bids.\");\n    // Prevent repaying loan after expiry\n    require(loan.loanCompleteTime >= block.timestamp, \"Can't repay expired loan.\");\n\n    // Add historic interest paid to previous top bidders + accrued interest to top bidder\n    // As of current block (future = 0 seconds)\n    uint256 _totalInterest = calculateTotalInterest(_loanId, 0);\n    // Calculate additional capital required to process payout\n    uint256 _additionalCapital = loan.loanAmountDrawn + _totalInterest;\n    // Enforce additional required capital is passed to contract\n    require(msg.value >= _additionalCapital, \"Insufficient repayment.\");\n\n    // Payout current top bidder (loan amount + total pending interest)\n    (bool sent, ) = payable(loan.lender).call{value: (loan.loanAmount + _totalInterest)}(\"\");\n    require(sent, \"Failed to repay loan.\");\n\n    // Transfer NFT back to owner\n    IERC721(loan.tokenAddress).transferFrom(address(this), loan.tokenOwner, loan.tokenId);\n\n    // Toggle loan repayment (nullify tokenOwner)\n    loan.tokenOwner = address(0);\n\n    // Emit repayment event\n    emit LoanRepayed(_loanId, loan.lender, msg.sender);\n  }\n\n  /**\n   * Enables owner to cancel loan\n   * @param _loanId id of loan to cancel\n   * @dev requires no active bids to be placed (else, use repay)\n   */\n  function cancelLoan(uint256 _loanId) external {\n    PawnLoan storage loan = pawnLoans[_loanId];\n    // Enforce loan ownership\n    require(loan.tokenOwner == msg.sender, \"Must be NFT owner to cancel.\");\n    // Enforce loan has no bids\n    require(loan.firstBidTime == 0, \"Can't cancel loan with >0 bids.\");\n\n    // Return NFT to owner\n    IERC721(loan.tokenAddress).transferFrom(address(this), msg.sender, loan.tokenId);\n\n    // Nullify loan\n    loan.tokenOwner = address(0);\n\n    // Emit cancelleation event\n    emit LoanCancelled(_loanId);\n  }\n\n  /**\n   * Enables anyone to seize NFT, for lender, on loan default\n   * @param _loanId id of loan to seize collateral\n   */\n  function seizeNFT(uint256 _loanId) external {\n    PawnLoan memory loan = pawnLoans[_loanId];\n    // Enforce loan is unpaid\n    require(loan.tokenOwner != address(0), \"Can't seize from repaid loan.\");\n    // Enforce loan is expired\n    require(loan.loanCompleteTime < block.timestamp, \"Can't seize before expiry.\");\n\n    // Transfer NFT to lender\n    IERC721(loan.tokenAddress).transferFrom(address(this), loan.lender, loan.tokenId);\n\n    // Emit seize event\n    emit LoanSeized(_loanId, loan.lender, msg.sender);\n  }\n}\n",
  "sourcePath": "/Users/Marco_Wang/Documents/Programming/blockchain/BlockchainGroup-SummerTechnicalProject/src/contracts/P2PLoan.sol",
  "compiler": {
    "name": "solc",
    "version": "0.8.4+commit.c7e474f2.Emscripten.clang"
  },
  "schemaVersion": "3.3.1",
  "updatedAt": "2021-09-02T11:49:50.339Z",
  "devdoc": {
    "author": "Anish Agnihotri",
    "details": "Completed loans are represented as tokenOwner = 0x0 to prevent      errors w.r.t stack too deep (too large of a struct to include a bool)Unlike original spec., lenders are paid for only active duration (D')",
    "kind": "dev",
    "methods": {
      "calculateInterestAccrued(uint256,uint256)": {
        "params": {
          "_future": "allows calculating accrued interest in future",
          "_loanId": "PawnLoan id"
        },
        "returns": {
          "_0": "Accrued interest on current top bid, in Ether"
        }
      },
      "calculateRequiredRepayment(uint256,uint256)": {
        "params": {
          "_future": "allows calculating require payment in future",
          "_loanId": "PawnLoan id"
        },
        "returns": {
          "_0": "required loan repayment in Ether"
        }
      },
      "calculateTotalInterest(uint256,uint256)": {
        "params": {
          "_future": "allows calculating required additional capital in future",
          "_loanId": "PawnLoan id"
        },
        "returns": {
          "_0": "required interest payment to cover current top bidder"
        }
      },
      "cancelLoan(uint256)": {
        "details": "requires no active bids to be placed (else, use repay)",
        "params": {
          "_loanId": "id of loan to cancel"
        }
      },
      "createLoan(address,uint256,uint256,uint256,uint256)": {
        "params": {
          "_interestRate": "percentage fixed interest rate for period",
          "_loanCompleteTime": "time of loan completion",
          "_maxLoanAmount": "maximum allowed Ether bid",
          "_tokenAddress": "NFT token address",
          "_tokenId": "NFT token id"
        },
        "returns": {
          "_0": "Loan id"
        }
      },
      "drawLoan(uint256)": {
        "params": {
          "_loanId": "id of loan to draw from"
        }
      },
      "repayLoan(uint256)": {
        "params": {
          "_loanId": "id of loan to repay"
        }
      },
      "seizeNFT(uint256)": {
        "params": {
          "_loanId": "id of loan to seize collateral"
        }
      },
      "underwriteLoan(uint256)": {
        "details": "Requires an unpaid loan, where currentBid < newBid <= maxBid",
        "params": {
          "_loanId": "id of loan to underwrite"
        }
      }
    },
    "title": "PawnBank: NFT-collateralized lending",
    "version": 1
  },
  "userdoc": {
    "kind": "user",
    "methods": {
      "calculateInterestAccrued(uint256,uint256)": {
        "notice": "Helper: Calculate accrued interest for a particular lender"
      },
      "calculateRequiredRepayment(uint256,uint256)": {
        "notice": "Helper: Calculate required capital to repay loan"
      },
      "calculateTotalInterest(uint256,uint256)": {
        "notice": "Helper: Calculates required additional capital (over topbid) to outbid loan"
      },
      "cancelLoan(uint256)": {
        "notice": "Enables owner to cancel loan"
      },
      "createLoan(address,uint256,uint256,uint256,uint256)": {
        "notice": "Enables an NFT owner to create a loan, specifying parameters"
      },
      "drawLoan(uint256)": {
        "notice": "Enables NFT owner to draw capital from top bid"
      },
      "repayLoan(uint256)": {
        "notice": "Enables anyone to repay a loan on behalf of owner"
      },
      "seizeNFT(uint256)": {
        "notice": "Enables anyone to seize NFT, for lender, on loan default"
      },
      "underwriteLoan(uint256)": {
        "notice": "Enables a lender/bidder to underwrite a loan, given it is the top bid"
      }
    },
    "version": 1
  }
}